:1000000043EF01F0FFFFFFFF04C0D2F003C0D1F0C7
:1000100002C0D0F001C0CFF000C0CEF0E9CF8BF02D
:10002000EACF8CF0E1CF8DF0E2CF8EF09EA01BD016
:100030009E90152A162A172A030E165C08E3A00EB6
:10004000186E860E196E010E1A6E000E1B6E040ECF
:10005000175C08E3E00E1C6E930E1D6E040E1E6E00
:10006000000E1F6E04009EA466D09E9416C020F061
:10007000166ABFCF21F0000E226E21C001F0006A87
:1000800000C021F001C022F0BE500024216E000EFD
:100090000120226E2050000A09E12350215C186ED5
:1000A00024502258196E000E1A6E1B6E2050010A41
:1000B00011E12350FF08186E24C019F0FF0E1956E5
:1000C000000E1A6E1B6E2150182622501922000EA7
:1000D0001A221B222050020A2AE12350FF08186E20
:1000E00024C019F0FF0E1956000E1A6E1B6EFF0E7B
:1000F0001824006EFF0E1920016E000E1A20026EE9
:10010000000E1B20036E00C018F001C019F002C0E1
:100110001AF003C01BF021500024186E2250012059
:10012000196E000E02201A6E000E03201B6E21C0F5
:1001300023F022C024F0A1A093D0A19017C020F0FA
:10014000176ABCCF21F0000E226E21C001F0006AB8
:1001500000C021F001C022F0BB500024216E000E2F
:100160000120226E2050000A09E12550215C1C6EFE
:10017000265022581D6E000E1E6E1F6E2050010A62
:1001800011E12550FF081C6E26C01DF0FF0E1D5604
:10019000000E1E6E1F6E21501C2622501D22000EC6
:1001A0001E221F222050020A2AE12550FF081C6E41
:1001B00026C01DF0FF0E1D56000E1E6E1F6EFF0E98
:1001C0001C24006EFF0E1D20016E000E1E20026E0C
:1001D000000E1F20036E00C01CF001C01DF002C005
:1001E0001EF003C01FF0215000241C6E225001207D
:1001F0001D6E000E02201E6E000E03201F6E20508A
:10020000030A2AE12550FF081C6E26C01DF0FF0ED0
:100210001D56000E1E6E1F6EFE0E1C24006EFF0E7D
:100220001D20016E010E1E20026E000E1F20036EA7
:1002300000C01CF001C01DF002C01EF003C01FF082
:10024000215000241C6E225001201D6E000E022041
:100250001E6E000E03201F6E21C025F022C026F066
:100260008BC0E9FF8CC0EAFF8DC0E1FF8EC0E2FFCA
:10027000D2C004F0D1C003F0D0C002F0CFC001F072
:10028000CEC000F01100BAEC38F000016D6B6E6B5F
:100290006F6B706B1D0ED26E0D0E0C6EFF0E0B6E23
:1002A000FF0E0A6E0C2E01D007D00B2E01D003D00A
:1002B0000A2EFED7FAD7F6D7BF0E0B6EFF0E0A6EC8
:1002C0000B2E01D003D00A2EFED7FAD72B0E0A6EC2
:1002D0000A2EFED70000000000009C8E0E0EC16E9C
:1002E000BA0EC06EFF0E926EFF0E936E1F0E946ECE
:1002F000966A976A8490849284845F6A606B716B5B
:10030000F26A9D6AA06A9E6AA16ABD6ABA6A170EFD
:10031000B76E050EBD6E050EBA6E310ECD6E830E34
:10032000936F0F0E946F020E956F030E966F040E6F
:10033000976F050E986F830E996F0F0E9A6F070EC9
:100340009B6F010E9C6F060E9D6F86EC30F00C0EBD
:100350000001C96F76EC37F0FA0EC86E5AEC3BF02C
:10036000D08E9F86A194C00EF26E9D6AA06AD19035
:10037000010E0001726F010E736F0001C6EF15F0E0
:10038000740E936F000E946F540E956F780E966FE7
:10039000000E976F66EC3AF0010E0001936F010EAC
:1003A000946F740E956F000E966F79EC39F0740EA1
:1003B000936F000E946F640E956F780E966F000E1B
:1003C000976F66EC3AF0020E0001936F010E946F86
:1003D000740E956F000E966F79EC39F0330E0C6E3B
:1003E000FF0E0B6EFF0E0A6E0C2E01D007D00B2EE7
:1003F00001D003D00A2EFED7FAD7F6D7FD0E0B6E2A
:10040000FF0E0A6E0B2E01D003D00A2EFED7FAD7AC
:10041000B50E0A6E0A2EFED700008482080E0C6EFE
:10042000FF0E0B6EFF0E0A6E0C2E01D007D00B2EA6
:1004300001D003D00A2EFED7FAD7F6D7A50E0B6E41
:10044000FF0E0A6E0B2E01D003D00A2EFED7FAD76C
:10045000E70E0A6E0A2EFED700008492010EC96FC5
:1004600076EC37F0020E0001726F346AECEF15F093
:10047000740E936F000E946F820E956F780E966FC8
:10048000000E976F66EC3AF0010E0001936F040EB8
:10049000946F740E956F000E966F79EC39F0740EB0
:1004A000936F000E946F460E956F780E966F000E48
:1004B000976F66EC3AF0020E0001936F010E946F95
:1004C000740E956F000E966F79EC39F0B4EF0AF068
:1004D0000001740E936F000E946FEC0E956F780E02
:1004E000966F000E976F66EC3AF0020E0001936F64
:1004F000060E946F740E956F000E966F79EC39F0BE
:100500000C0E4F6E000E506E516E526E1C0E6D6FC3
:10051000070E6E6F000E6F6F706F1C0E436E070E2E
:10052000446E000E456E466E000E5B6E000E5C6EF5
:10053000000E5D6E800E5E6E000E616F000E626FCB
:10054000400E636F800E646F000E576E000E586E83
:10055000170E596E860E5A6E9AEF0CF00001740E4B
:10056000936F000E946FF60E956F780E966F000ED7
:10057000976F66EC3AF0020E0001936F060E946FCF
:10058000740E956F000E966F79EC39F00C0E4F6E6D
:10059000000E506E516E526E110E6D6F070E6E6F23
:1005A000000E6F6F706F110E436E070E446E000EDB
:1005B000456E466E000E5B6E000E5C6E000E5D6E4C
:1005C000800E5E6E000E616F000E626F400E636FF4
:1005D000800E646F000E576E000E586E160E596E28
:1005E000860E5A6E9AEF0CF00001740E936F000E97
:1005F000946F000E956F790E966F000E976F66ECF4
:100600003AF0020E0001936F060E946F740E956F10
:10061000000E966F79EC39F00C0E4F6E000E506E96
:10062000516E526E110E6D6F070E6E6F000E6F6F72
:10063000706F110E436E070E446E000E456E466ECF
:10064000000E5B6E000E5C6E000E5D6E800E5E6EC8
:10065000000E616F000E626F400E636F800E646F5C
:10066000000E576E000E586E160E596E860E5A6E9C
:100670009AEF0CF00001740E936F000E946F0A0E47
:10068000956F790E966F000E976F66EC3AF0020E3A
:100690000001936F060E946F740E956F000E966FA7
:1006A00079EC39F00C0E4F6E000E506E516E526E9A
:1006B000110E6D6F070E6E6F000E6F6F706F110E63
:1006C000436E070E446E000E456E466E000E5B6E66
:1006D000000E5C6E000E5D6E800E5E6E000E616F31
:1006E000000E626F400E636F800E646F000E576ED7
:1006F000000E586E160E596E860E5A6E9AEF0CF05A
:100700000001740E936F000E946F140E956F790EA6
:10071000966F000E976F66EC3AF0020E0001936F31
:10072000060E946F740E956F000E966F79EC39F08B
:100730000C0E4F6E000E506E516E526E1C0E6D6F91
:10074000070E6E6F000E6F6F706F1C0E436E070EFC
:10075000446E000E456E466E000E5B6E000E5C6EC3
:10076000000E5D6E800E5E6E000E616F000E626F99
:10077000400E636F800E646F000E576E000E586E51
:10078000170E596E860E5A6E9AEF0CF00001740E19
:10079000936F000E946F1E0E956F790E966F000E7C
:1007A000976F66EC3AF0020E0001936F060E946F9D
:1007B000740E956F000E966F79EC39F00C0E4F6E3B
:1007C000000E506E516E526E1C0E6D6F070E6E6FE6
:1007D000000E6F6F706F1C0E436E070E446E000E9E
:1007E000456E466E000E5B6E000E5C6E000E5D6E1A
:1007F000800E5E6E000E616F000E626F400E636FC2
:10080000800E646F000E576E000E586E170E596EF4
:10081000860E5A6E9AEF0CF00001740E936F000E64
:10082000946F280E956F790E966F000E976F66EC99
:100830003AF0020E0001936F060E946F740E956FDE
:10084000000E966F79EC39F00C0E4F6E000E506E64
:10085000516E526E1C0E6D6F070E6E6F000E6F6F35
:10086000706F1C0E436E070E446E000E456E466E92
:10087000000E5B6E000E5C6E000E5D6E800E5E6E96
:10088000000E616F000E626F400E636F800E646F2A
:10089000000E576E000E586E170E596E860E5A6E69
:1008A0009AEF0CF00001740E936F000E946F320EED
:1008B000956F790E966F000E976F66EC3AF0020E08
:1008C0000001936F060E946F740E956F000E966F75
:1008D00079EC39F00C0E4F6E000E506E516E526E68
:1008E0001C0E6D6F070E6E6F000E6F6F706F1C0E1B
:1008F000436E070E446E000E456E466E000E5B6E34
:10090000000E5C6E000E5D6E800E5E6E000E616FFE
:10091000000E626F400E636F800E646F000E576EA4
:10092000000E586E170E596E860E5A6E9AEF0CF026
:100930000001740E936F000E946F3C0E956F790E4C
:10094000966F000E976F66EC3AF0020E0001936FFF
:10095000060E946F740E956F000E966F79EC39F059
:100960000C0E4F6E000E506E516E526E1C0E6D6F5F
:10097000070E6E6F000E6F6F706F1C0E436E070ECA
:10098000446E000E456E466E000E5B6E000E5C6E91
:10099000000E5D6E800E5E6E000E616F000E626F67
:1009A000400E636F800E646F000E576E000E586E1F
:1009B000170E596E860E5A6E9AEF0CF00001740EE7
:1009C000936F000E946F460E956F790E966F000E22
:1009D000976F66EC3AF0020E0001936F060E946F6B
:1009E000740E956F000E966F79EC39F00C0E4F6E09
:1009F000000E506E516E526E1C0E6D6F070E6E6FB4
:100A0000000E6F6F706F1C0E436E070E446E000E6B
:100A1000456E466E000E5B6E000E5C6E000E5D6EE7
:100A2000800E5E6E000E616F000E626F400E636F8F
:100A3000800E646F000E576E000E586E170E596EC2
:100A4000860E5A6E9AEF0CF00001740E936F000E32
:100A5000946F500E956F790E966F000E976F66EC3F
:100A60003AF0020E0001936F060E946F740E956FAC
:100A7000000E966F79EC39F00C0E4F6E000E506E32
:100A8000516E526E110E6D6F070E6E6F000E6F6F0E
:100A9000706F110E436E070E446E000E456E466E6B
:100AA000000E5B6E000E5C6E000E5D6E800E5E6E64
:100AB000000E616F000E626F400E636F800E646FF8
:100AC000000E576E000E586E160E596E860E5A6E38
:100AD0009AEF0CF00001740E936F000E946F5A0E93
:100AE000956F790E966F000E976F66EC3AF0020ED6
:100AF0000001936F060E946F740E956F000E966F43
:100B000079EC39F00C0E4F6E000E506E516E526E35
:100B1000110E6D6F070E6E6F000E6F6F706F110EFE
:100B2000436E070E446E000E456E466E000E5B6E01
:100B3000000E5C6E000E5D6E800E5E6E000E616FCC
:100B4000000E626F400E636F800E646F000E576E72
:100B5000000E586E160E596E860E5A6E9AEF0CF0F5
:100B60000001740E936F000E946F640E956F790EF2
:100B7000966F000E976F66EC3AF0020E0001936FCD
:100B8000060E946F740E956F000E966F79EC39F027
:100B90000C0E4F6E000E506E516E526E4D0E6D6FFC
:100BA000050E6E6F000E6F6F706F4D0E436E050E6B
:100BB000446E000E456E466E000E5B6E000E5C6E5F
:100BC000000E5D6E800E5E6E000E616F000E626F35
:100BD000000E636F810E646F000E576E000E586E2C
:100BE000620E596E850E5A6E9AEF0CF00001740E6B
:100BF000936F000E946F6E0E956F790E966F000EC8
:100C0000976F66EC3AF0020E0001936F060E946F38
:100C1000740E956F000E966F79EC39F00D0E4F6ED5
:100C2000000E506E516E526EC70E6D6F050E6E6FD8
:100C3000000E6F6F706FC70E436E050E446E000E90
:100C4000456E466E000E5B6E000E5C6E000E5D6EB5
:100C5000800E5E6E000E616F000E626F000E636F9D
:100C6000810E646F000E576E000E586E620E596E44
:100C7000850E5A6E9AEF0CF00001740E936F000E01
:100C8000946F780E956F790E966F000E976F66ECE5
:100C90003AF0020E0001936F060E946F740E956F7A
:100CA000000E966F79EC39F00C0E4F6E000E506E00
:100CB000516E526E4D0E6D6F050E6E6F000E6F6FA2
:100CC000706F4D0E436E050E446E000E456E466EFF
:100CD000000E5B6E000E5C6E000E5D6E800E5E6E32
:100CE000000E616F000E626F000E636F810E646F05
:100CF000000E576E000E586E620E596E850E5A6EBB
:100D00009AEF0CF00001740E936F000E946F820E38
:100D1000956F790E966F000E976F66EC3AF0020EA3
:100D20000001936F060E946F740E956F000E966F10
:100D300079EC39F00F0E4F6E000E506E516E526E00
:100D4000710E6D6F040E6E6F000E6F6F706F710E0F
:100D5000436E040E446E000E456E466E000E5B6ED2
:100D6000000E5C6E000E5D6E800E5E6E000E616F9A
:100D7000000E626F400E636F810E646F000E576E3F
:100D8000000E586E160E596E850E5A6E9AEF0CF0C4
:100D90000001740E936F000E946F8C0E956F790E98
:100DA000966F000E976F66EC3AF0020E0001936F9B
:100DB000060E946F740E956F000E966F79EC39F0F5
:100DC0000C0E4F6E000E506E516E526E890E6D6F8E
:100DD000030E6E6F000E6F6F706F890E436E030E01
:100DE000446E000E456E466E000E5B6E000E5C6E2D
:100DF000000E5D6E800E5E6E000E616F000E626F03
:100E0000400E636F810E646F000E576E000E586EB9
:100E1000160E596E850E5A6E9AEF0CF00001740E84
:100E2000936F000E946F960E956F790E966F000E6D
:100E3000976F66EC3AF0020E0001936F060E946F06
:100E4000740E956F000E966F79EC39F00C0E4F6EA4
:100E5000000E506E516E526E890E6D6F030E6E6FE6
:100E6000000E6F6F706F890E436E030E446E000E9E
:100E7000456E466E000E5B6E000E5C6E000E5D6E83
:100E8000800E5E6E000E616F000E626F400E636F2B
:100E9000810E646F000E576E000E586E160E596E5E
:100EA000850E5A6E9AEF0CF00001740E936F000ECF
:100EB000946FA00E956F790E966F000E976F66EC8B
:100EC0003AF0020E0001936F060E946F740E956F48
:100ED000000E966F79EC39F00F0E4F6E000E506ECB
:100EE000516E526E710E6D6F040E6E6F000E6F6F4D
:100EF000706F710E436E040E446E000E456E466EAA
:100F0000000E5B6E000E5C6E000E5D6E800E5E6EFF
:100F1000000E616F000E626F400E636F810E646F92
:100F2000000E576E000E586E160E596E850E5A6ED4
:100F30009AEF0CF00001740E936F000E946FAA0EDE
:100F4000956F790E966F000E976F66EC3AF0020E71
:100F50000001936F060E946F740E956F000E966FDE
:100F600079EC39F00F0E4F6E000E506E516E526ECE
:100F7000710E6D6F040E6E6F000E6F6F706F710EDD
:100F8000436E040E446E000E456E466E000E5B6EA0
:100F9000000E5C6E000E5D6E800E5E6E000E616F68
:100FA000000E626F400E636F810E646F000E576E0D
:100FB000000E586E160E596E850E5A6E9AEF0CF092
:100FC0000001740E936F000E946FB40E956F790E3E
:100FD000966F000E976F66EC3AF0020E0001936F69
:100FE000060E946F740E956F000E966F79EC39F0C3
:100FF0000F0E4F6E000E506E516E526E710E6D6F71
:10100000040E6E6F000E6F6F706F710E436E040EE4
:10101000446E000E456E466E000E5B6E000E5C6EFA
:10102000000E5D6E800E5E6E000E616F000E626FD0
:10103000400E636F810E646F000E576E000E586E87
:10104000160E596E850E5A6E9AEF0CF00001740E52
:10105000936F000E946FBE0E956F790E966F000E13
:10106000976F66EC3AF0020E0001936F060E946FD4
:10107000740E956F000E966F79EC39F00F0E4F6E6F
:10108000000E506E516E526E710E6D6F040E6E6FCB
:10109000000E6F6F706F710E436E040E446E000E83
:1010A000456E466E000E5B6E000E5C6E000E5D6E51
:1010B000800E5E6E000E616F000E626F400E636FF9
:1010C000810E646F000E576E000E586E160E596E2C
:1010D000850E5A6E9AEF0CF00001740E936F000E9D
:1010E000946FC80E956F790E966F000E976F66EC31
:1010F0003AF0020E0001936F060E946F740E956F16
:10110000000E966F79EC39F0080E4F6E000E506E9F
:10111000516E526E090E6D6F020E6E6F000E6F6F84
:10112000706F090E436E020E446E000E456E466EE1
:10113000000E5B6E000E5C6E000E5D6E800E5E6ECD
:10114000000E616F000E626F400E636F810E646F60
:10115000000E576E000E586E020E596E850E5A6EB6
:101160009AEF0CF00001740E936F000E946FD20E84
:10117000956F790E966F000E976F66EC3AF0020E3F
:101180000001936F060E946F740E956F000E966FAC
:1011900079EC39F00D0E4F6E000E506E516E526E9E
:1011A000B60E6D6F020E6E6F000E6F6F706FB60E23
:1011B000436E020E446E000E456E466E000E5B6E70
:1011C000000E5C6E000E5D6E800E5E6E000E616F36
:1011D000000E626F000E636F820E646F000E576E1A
:1011E000000E586E540E596E840E5A6E9AEF0CF023
:1011F0000001740E936F000E946FDC0E956F790EE4
:10120000966F000E976F66EC3AF0020E0001936F36
:10121000060E946F740E956F000E966F79EC39F090
:101220000D0E4F6E000E506E516E526E910E6D6F20
:10123000020E6E6F000E6F6F706F910E436E020E96
:10124000446E000E456E466E000E5B6E000E5C6EC8
:10125000000E5D6E800E5E6E000E616F000E626F9E
:10126000100E636F820E646F000E576E000E586E84
:10127000480E596E840E5A6E9AEF0CF00001740EEF
:10128000936F000E946FE60E956F790E966F000EB9
:10129000976F66EC3AF0020E0001936F060E946FA2
:1012A000740E956F000E966F79EC39F00D0E4F6E3F
:1012B000000E506E516E526E580E6D6F060E6E6FB0
:1012C000000E6F6F706F580E436E060E446E000E68
:1012D000456E466E000E5B6E000E5C6E000E5D6E1F
:1012E0007F0E5E6E000E616F000E626F400E636FC8
:1012F000810E646F000E576E000E586E780E596E98
:10130000850E5A6E17D30001740E936F000E946F02
:10131000F00E956F790E966F000E976F66EC3AF0AF
:10132000020E0001936F060E946F740E956F000EFF
:10133000966F79EC39F00D0E4F6E000E506E516EB7
:10134000526E910E6D6F020E6E6F000E6F6F706FAA
:10135000910E436E020E446E000E456E466E000EF8
:101360005B6E000E5C6E000E5D6E800E5E6E000E9B
:10137000616F000E626F100E636F820E646F000E5D
:10138000576E000E586E480E596E840E5A6ED2D2A9
:101390000001740E936F000E946FFA0E956F790E24
:1013A000966F000E976F66EC3AF0020E0001936F95
:1013B000060E946F740E956F000E966F79EC39F0EF
:1013C0000D0E4F6E000E506E516E526E910E6D6F7F
:1013D000020E6E6F000E6F6F706F910E436E020EF5
:1013E000446E000E456E466E000E5B6E000E5C6E27
:1013F000000E5D6E800E5E6E000E616F000E626FFD
:10140000100E636F820E646F000E576E000E586EE2
:10141000480E596E840E5A6E8DD20001740E936F71
:10142000000E946F040E956F7A0E966F000E976FF4
:1014300066EC3AF0020E0001936F060E946F740E84
:10144000956F000E966F79EC39F00F0E4F6E000E0F
:10145000506E516E526E710E6D6F040E6E6F000EF7
:101460006F6F706F710E436E040E446E000E456E0A
:10147000466E000E5B6E000E5C6E000E5D6E800EA2
:101480005E6E000E616F000E626F400E636F810E24
:10149000646F000E576E000E586E160E596E850E54
:1014A0005A6E48D20001740E936F000E946F0E0EA8
:1014B000956F7A0E966F000E976F66EC3AF0020EFB
:1014C0000001936F060E946F740E956F000E966F69
:1014D00079EC39F00D0E4F6E000E506E516E526E5B
:1014E000C70E6D6F050E6E6F000E6F6F706FC70EBB
:1014F000436E050E446E000E456E466E000E5B6E2A
:10150000000E5C6E000E5D6E800E5E6E000E616FF2
:10151000000E626F000E636F810E646F000E576ED7
:10152000000E586E620E596E850E5A6E03D200017F
:10153000740E936F000E946F180E956F7A0E966F5F
:10154000000E976F66EC3AF0020E0001936F060EE4
:10155000946F740E956F000E966F79EC39F06D6B89
:101560006E6B6F6B706BE6D1000E006E561808E163
:101570000050551805E10050541802E15350010A7B
:101580000001D8B468EF02F0000E006E561808E1B2
:101590000050551805E10050541802E15350020A5A
:1015A0000001D8B4AEEF02F0000E006E561808E14C
:1015B0000050551805E10050541802E15350030A39
:1015C0000001D8B4F4EF02F0000E006E561808E1E6
:1015D0000050551805E10050541802E15350040A18
:1015E0000001D8B43AEF03F0000E006E561808E17F
:1015F0000050551805E10050541802E15350050AF7
:101600000001D8B480EF03F0000E006E561808E118
:101610000050551805E10050541802E15350060AD5
:101620000001D8B4C6EF03F0000E006E561808E1B2
:101630000050551805E10050541802E15350070AB4
:101640000001D8B40CEF04F0000E006E561808E14B
:101650000050551805E10050541802E15350080A93
:101660000001D8B452EF04F0000E006E561808E1E5
:101670000050551805E10050541802E15350090A72
:101680000001D8B498EF04F0000E006E561808E17F
:101690000050551805E10050541802E153500A0A51
:1016A0000001D8B4DEEF04F0000E006E561808E119
:1016B0000050551805E10050541802E153500B0A30
:1016C0000001D8B424EF05F0000E006E561808E1B2
:1016D0000050551805E10050541802E153500C0A0F
:1016E0000001D8B46AEF05F0000E006E561808E14C
:1016F0000050551805E10050541802E153500D0AEE
:101700000001D8B4B0EF05F0000E006E561808E1E5
:101710000050551805E10050541802E153500E0ACC
:101720000001D8B4F6EF05F0000E006E561808E17F
:101730000050551805E10050541802E153500F0AAB
:101740000001D8B43CEF06F0000E006E561808E118
:101750000050551805E10050541802E15350100A8A
:101760000001D8B482EF06F0000E006E561808E1B2
:101770000050551805E10050541802E15350110A69
:101780000001D8B4C8EF06F0000E006E561808E14C
:101790000050551805E10050541802E15350120A48
:1017A0000001D8B40EEF07F0000E006E561808E1E5
:1017B0000050551805E10050541802E15350130A27
:1017C0000001D8B454EF07F0000E006E561808E17F
:1017D0000050551805E10050541802E15350140A06
:1017E0000001D8B49AEF07F0000E006E561808E119
:1017F0000050551805E10050541802E15350150AE5
:101800000001D8B4E0EF07F0000E006E561808E1B2
:101810000050551805E10050541802E15350160AC3
:101820000001D8B413D4000E006E561808E1005021
:10183000551805E10050541802E15350170A0001F1
:10184000D8B44AD4000E006E561808E1005055185E
:1018500005E10050541802E15350180A0001D8B4B1
:1018600081D4000E006E561808E10050551805E1AD
:101870000050541802E15350190A0001D8B4B8D4EA
:10188000000E006E561808E10050551805E1005092
:10189000541802E153501A0A0001D8B4EFD4000ED4
:1018A000006E561808E10050551805E10050541814
:1018B00002E153501B0A0001D8B425D5000E006E7A
:1018C000561808E10050551805E10050541802E17F
:1018D00053501C0A0001D8B45BD5000E006E561898
:1018E00008E10050551805E10050541802E153502A
:1018F0001D0A0001D8B491D5000E006E561808E1FB
:101900000050551805E10050541802E153501E0ACA
:101910000001D8B4C7D5000E006E561808E100507B
:10192000551805E10050541802E153501F0A0001F8
:10193000D8B4FDD5AEEC32F000018451030A09E1C0
:10194000010E5326000E542255225622346A020EEE
:10195000726F5650000808E15550000805E15450D8
:10196000000802E153501F08000106E2010E536E09
:10197000000E546E556E566E00018451040A11E13A
:10198000010E006E000E016E026E036E0050535E7B
:101990000150545A0250555A0350565A346A020E96
:1019A000726F000E565C08E1000E555C05E1000EFA
:1019B000545C02E1010E535C000106E21F0E536EFF
:1019C000000E546E556E566E00018451050AD8A45F
:1019D000C6D0000E006E561808E10050551805E1FB
:1019E0000050541802E153501F0A5DE1010EC96F07
:1019F00076EC37F0740E0001936F000E946FA40E16
:101A0000956F780E966F000E976F66EC3AF0010EA8
:101A10000001936F050E946F740E956F000E966F14
:101A200079EC39F0740E936F000E946FAE0E956FD3
:101A3000780E966F000E976F66EC3AF0020E00017A
:101A4000936F060E946F740E956F000E966F79EC7F
:101A500039F01A0E0C6EFF0E0B6EFF0E0A6E0C2E76
:101A600001D007D00B2E01D003D00A2EFED7FAD713
:101A7000F6D77F0E0B6EFF0E0A6E0B2E01D003D031
:101A80000A2EFED7FAD7580E0A6E0A2EFED700008D
:101A90000000010EC96F76EC37F0050E0001726F81
:101AA000346AECEF15F00001010EC96F76EC37F0E7
:101AB000740E0001936F000E946FA40E956F780E54
:101AC000966F000E976F66EC3AF0010E0001936F6F
:101AD000050E946F740E956F000E966F79EC39F0C9
:101AE000740E936F000E946FAE0E956F780E966F16
:101AF000000E976F66EC3AF0020E0001936F060E2F
:101B0000946F740E956F000E966F79EC39F01A0E83
:101B10000C6EFF0E0B6EFF0E0A6E0C2E01D007D05E
:101B20000B2E01D003D00A2EFED7FAD7F6D77F0EA0
:101B30000B6EFF0E0A6E0B2E01D003D00A2EFED7BD
:101B4000FAD7580E0A6E0A2EFED700000000010ECA
:101B5000C96F76EC37F0030E0001726F346AECEF58
:101B600015F0740E936F000E946F8E0E956F780EB5
:101B7000966F000E976F66EC3AF0010E0001936FBE
:101B80000E0E946F740E956F000E966F79EC39F00F
:101B9000740E936F000E946FA00E956F780E966F73
:101BA000000E976F66EC3AF0020E0001936F0E0E76
:101BB000946F740E956F000E966F79EC39F0845126
:101BC000030A57E165C000F066C001F067C002F08B
:101BD00068C003F0CD0E046ECC0E056E4C0E066E82
:101BE0007B0E076E17EC2AF000C065F001C066F0AE
:101BF00002C067F003C068F0346A43506D27445058
:101C00006E2345506F2346507023010E3B26000E75
:101C10003C223D223E22740E936F000E946FB60E4E
:101C2000956F780E966F000E976F66EC3AF0010E86
:101C30000001936F010E946F740E956F000E966FF6
:101C400079EC39F0740E936F000E946FB60E956FA9
:101C5000780E966F000E976F66EC3AF0020E000158
:101C6000936F010E946F740E956F000E966F79EC62
:101C700039F08451040A5FE1CD0E046ECC0E056E7E
:101C80004C0E066E7B0E076E65C000F066C001F05C
:101C900067C002F068C003F085EC3BF000C065F05F
:101CA00001C066F002C067F003C068F0346A4350B8
:101CB0006D5F44506E5B45506F5B4650705B010E2C
:101CC000006E000E016E026E036E00503B5E01500E
:101CD0003C5A02503D5A03503E5A740E936F000E08
:101CE000946FB60E956F780E966F000E976F66EC38
:101CF0003AF0010E0001936F010E946F740E956F10
:101D0000000E966F79EC39F0740E936F000E946F9D
:101D1000B60E956F780E966F000E976F66EC3AF0E0
:101D2000020E0001936F010E946F740E956F000EFA
:101D3000966F79EC39F0CD0E046ECC0E056E4C0E1C
:101D4000066E7B0E076E65C000F066C001F067C0CE
:101D500002F068C003F0EDEC37F0010ED8B0000ED1
:101D6000006E005208E0656B666B676B686B6D6BAD
:101D70006E6B6F6B706B00016DC093F06EC094F072
:101D80006FC095F070C096F0740E976F000E986F4C
:101D900094EC33F0010E0001936F010E946F740EFA
:101DA000956F000E966F79EC39F0746B740E936F2B
:101DB000000E946F220E956F7A0E966F000E976F3D
:101DC00065C098F066C099F067C09AF068C09BF053
:101DD00091EC3AF0020E936F010E946F740E956FB2
:101DE000000E966F79EC39F0740E936F000E946FBD
:101DF000C20E956F780E966F000E976F66EC3AF0F4
:101E0000020E0001936F050E946F740E956F000E15
:101E1000966F79EC39F0746B8451050A07E1040E72
:101E2000726F346A010EC96F76EC37F0000184518D
:101E3000010A08E1010EC96F76EC37F0020E0001CD
:101E4000726F346A8451020A08E1010EC96F76ECA0
:101E500037F0020E0001726F346AECEF15F0740E69
:101E6000936F000E946FA00E956F780E966F000E14
:101E7000976F66EC3AF0010E0001936F0E0E946FAF
:101E8000740E956F000E966F79EC39F0740E936FA7
:101E9000000E946F8E0E956F780E966F000E976FF2
:101EA00066EC3AF0020E0001936F0E0E946F740E02
:101EB000956F000E966F79EC39F08451050A08E1B0
:101EC000010EC96F76EC37F0020E0001726F346AB2
:101ED0007051425C08E16F51415C05E16E51405C1C
:101EE00002E16D513F5CD8B013D1AEEC32F000C0CE
:101EF00084F00050050A29E10001846B820E0B6E0C
:101F0000FF0E0A6E0B2E01D003D00A2EFED7FAD791
:101F1000870E0A6E0A2EFED7000000018451050AC2
:101F200014E0AEEC32F000C084F0410E0B6EFF0EF8
:101F30000A6E0B2E01D003D00A2EFED7FAD7C30E9D
:101F40000A6E0A2EFED70000E8D700018451060A67
:101F5000D8B4DED0010E3F26000E4022412242229C
:101F600085903B0E0B6EFF0E0A6E0B2E01D003D038
:101F70000A2EFED7FAD7480E0A6E0A2EFED70000A8
:101F800000008580070E0B6EFF0E0A6E0B2E01D02F
:101F900003D00A2EFED7FAD7780E0A6E0A2EFED785
:101FA000000000004FC004F050C005F051C006F022
:101FB00052C007F03FC000F040C001F041C002F045
:101FC00042C003F0BCEC2DF0CFEC3AF05BC004F063
:101FD0005CC005F05DC006F05EC007F0E2EC36F0D4
:101FE00061C004F062C005F063C006F064C007F091
:101FF000E2EC36F0000E046E400E056E1C0E066E0E
:102000008C0E076E01EC35F000C08FF001C090F02F
:1020100002C091F003C092F03BC000F03CC001F060
:102020003DC002F03EC003F0CFEC3AF00A0E046E61
:10203000D70E056E230E066E780E076EE2EC36F0B4
:102040008FC004F090C005F091C006F092C007F078
:1020500017EC2AF000C069F001C06AF002C06BF012
:1020600003C06CF0740E936F000E946F260E956F84
:102070007A0E966F000E976F00C098F001C099F02D
:1020800002C09AF003C09BF091EC3AF0010E936FFE
:10209000010E946F740E956F000E966F79EC39F007
:1020A000746B740E936F000E946F2A0E956F7A0EF8
:1020B000966F000E976F3FC098F040C099F041C0F6
:1020C0009AF042C09BF091EC3AF0020E936F010E31
:1020D000946F740E956F000E966F79EC39F0746BF7
:1020E000740E936F000E946FC20E956F780E966FFC
:1020F000000E976F66EC3AF0010E0001936F080E28
:10210000946F740E956F000E966F79EC39F0E0D6EF
:1021100000014E50000808E14D50000805E14C5008
:10212000000802E14B500208000145E3010E4B2676
:10213000000E4C224D224E228482060E0C6EFF0EA3
:102140000B6EFF0E0A6E0C2E01D007D00B2E01D0A5
:1021500003D00A2EFED7FAD7F6D71A0E0B6EFF0E53
:102160000A6E0B2E01D003D00A2EFED7FAD7420EEC
:102170000A6E0A2EFED78492060E0C6EFF0E0B6EB0
:10218000FF0E0A6E0C2E01D007D00B2E01D003D00B
:102190000A2EFED7FAD7F6D71A0E0B6EFF0E0A6E6E
:1021A0000B2E01D003D00A2EFED7FAD7420E0A6EAC
:1021B0000A2EFED7ADD700016D6B6E6B6F6B706B27
:1021C000010E3F6E000E406E416E426E4F6A506AC5
:1021D000516A526A010E536E000E546E556E566E61
:1021E000CD0E656FCC0E666F4C0E676F7B0E686F01
:1021F00085808492ECEF15F0740E936F000E946F4F
:102200002E0E956F7A0E966F000E976F66EC3AF071
:10221000010E0001936F010E946F740E956F000E06
:10222000966F79EC39F0010E6D6F000E6E6F6F6F67
:10223000706F740E936F000E946F400E956F7A0E50
:10224000966F000E976F010E986F000E996F000E3B
:102250009A6F000E9B6F91EC3AF0020E936F050E91
:10226000946F740E956F000E966F79EC39F00E0E28
:10227000C96F76EC37F00F0E0001C96F76EC37F0BE
:10228000100E0001C96F76EC37F0050E0001856F66
:102290000001AEEC32F000C084F00050050A02E10B
:1022A000346A0FD300018451040A0CE1850785517B
:1022B000000A03E1010E856F04D0100EC96F76ECA1
:1022C00037F0346A00018451030A0CE1852B8551F3
:1022D000050803E2050E856F04D0140EC96F76EC75
:1022E00037F0346A00018451010AD8A436D125D0D0
:1022F000100E6D27270E6E23000E6F2370232CD037
:10230000E80E6D27030E6E23000E6F23702324D07A
:10231000640E6D27000E6E236F2370231DD00A0EEE
:102320006D27000E6E236F23702316D0010E6D27CC
:10233000000E6E236F2370230FD08551010AD8E061
:102340008551020ADDE08551030AE2E08551040A65
:10235000E6E08551050AEAE07051000808E16F5196
:10236000010805E16E51860802E16D519F0808E2FF
:102370009F0E6D6F860E6E6F010E6F6F000E706F89
:102380000001000E705D08E1000E6F5D05E1000EBA
:102390006E5D02E10A0E6D5D1FE2860E936F000E08
:1023A000946F440E956F7A0E966F000E976F6DC006
:1023B00098F06EC099F06FC09AF070C09BF091ECED
:1023C0003AF0020E936F050E946F860E956F000E15
:1023D000966F79EC39F0AFD00001000E705D08E126
:1023E000000E6F5D05E1000E6E5D02E1640E6D5D35
:1023F0001FE2860E936F000E946F480E956F7A0E53
:10240000966F000E976F6DC098F06EC099F06FC018
:102410009AF070C09BF091EC3AF0020E936F040EAC
:10242000946F860E956F000E966F79EC39F083D01D
:102430000001000E705D08E1000E6F5D05E1030E06
:102440006E5D02E1E80E6D5D1FE2860E936F000E79
:10245000946F4C0E956F7A0E966F000E976F6DC04D
:1024600098F06EC099F06FC09AF070C09BF091EC3C
:102470003AF0020E936F030E946F860E956F000E66
:10248000966F79EC39F057D00001000E705D08E1CD
:10249000000E6F5D05E1270E6E5D02E1100E6D5DB1
:1024A0001FE2860E936F000E946F500E956F7A0E9A
:1024B000966F000E976F6DC098F06EC099F06FC068
:1024C0009AF070C09BF091EC3AF0020E936F020EFE
:1024D000946F860E956F000E966F79EC39F02BD0C5
:1024E0000001000E705D08E1010E6F5D05E1860ED2
:1024F0006E5D02E1A00E6D5D1EE2860E936F000E12
:10250000946F540E956F7A0E966F000E976F6DC094
:1025100098F06EC099F06FC09AF070C09BF091EC8B
:102520003AF0020E936F010E946F860E956F000EB7
:10253000966F79EC39F00001C00EC96F76EC37F078
:10254000010E3A6E000185513A5C06E2140EC96F25
:1025500076EC37F03A2AF6D7346A00018451020A41
:10256000D8A4AED186D0000E705D08E1000E6F5D7C
:1025700005E1270E6E5D02E1110E6D5D0FE3100E99
:10258000006E270E016E000E026E036E00506D5F2E
:1025900001506E5B02506F5B0350705B000179D09D
:1025A000000E705D08E1000E6F5D05E1030E6E5DCB
:1025B00002E1E90E6D5D0FE3E80E006E030E016EA1
:1025C000000E026E036E00506D5F01506E5B025094
:1025D0006F5B0350705B00015CD0000E705D08E122
:1025E000000E6F5D05E1000E6E5D02E1650E6D5D32
:1025F0000EE3640E006E000E016E026E036E00505C
:102600006D5F01506E5B02506F5B0350705B0001A9
:1026100040D0000E705D08E1000E6F5D05E1000E18
:102620006E5D02E10B0E6D5D0EE30A0E006E000E94
:10263000016E026E036E00506D5F01506E5B0250C2
:102640006F5B0350705B000124D0000E705D08E1E9
:10265000000E6F5D05E1000E6E5D02E1010E6D5D25
:1026600006E3010E6D5F000E6E5B6F5B705B000139
:1026700010D08551010AD8B476D78551020A90E06E
:102680008551030AAAE08551040AC3E08551050A71
:10269000DCE00001000E705D08E1000E6F5D05E1F9
:1026A000000E6E5D02E1010E6D5D06E2010E6D6FC2
:1026B000000E6E6F6F6F706F0001860E936F000ECD
:1026C000946F580E956F7A0E966F000E976F66ECAA
:1026D0003AF0020E0001936F010E946F860E956F13
:1026E000000E966F79EC39F0000E705D08E1000E77
:1026F0006F5D05E1000E6E5D02E10A0E6D5D1FE289
:10270000860E936F000E946F5E0E956F7A0E966F25
:10271000000E976F6DC098F06EC099F06FC09AF080
:1027200070C09BF091EC3AF0020E936F050E946F1F
:10273000860E956F000E966F79EC39F0AFD00001E0
:10274000000E705D08E1000E6F5D05E1000E6E5D2C
:1027500002E1640E6D5D1FE2860E936F000E946FB2
:10276000620E956F7A0E966F000E976F6DC098F09F
:102770006EC099F06FC09AF070C09BF091EC3AF087
:10278000020E936F040E946F860E956F000E966F77
:1027900079EC39F083D00001000E705D08E1000E85
:1027A0006F5D05E1030E6E5D02E1E80E6D5D1FE2F7
:1027B000860E936F000E946F660E956F7A0E966F6D
:1027C000000E976F6DC098F06EC099F06FC09AF0D0
:1027D00070C09BF091EC3AF0020E936F030E946F71
:1027E000860E956F000E966F79EC39F057D0000188
:1027F000000E705D08E1000E6F5D05E1270E6E5D55
:1028000002E1100E6D5D1FE2860E936F000E946F55
:102810006A0E956F7A0E966F000E976F6DC098F0E6
:102820006EC099F06FC09AF070C09BF091EC3AF0D6
:10283000020E936F020E946F860E956F000E966FC8
:1028400079EC39F02BD00001000E705D08E1010E2B
:102850006F5D05E1860E6E5D02E1A00E6D5D1EE20C
:10286000860E936F000E946F6E0E956F7A0E966FB4
:10287000000E976F6DC098F06EC099F06FC09AF01F
:1028800070C09BF091EC3AF0020E936F010E946FC2
:10289000860E956F000E966F79EC39F00001C00E30
:1028A000C96F76EC37F0010E3A6E000185513A5C43
:1028B00006E2140EC96F76EC37F03A2AF6D7346A7E
:1028C000E7D4060E0001726F87D1740E936F000E6D
:1028D000946FC80E956F780E966F000E976F66EC2A
:1028E0003AF0010E0001936F010E946F740E956F14
:1028F000000E966F79EC39F0AEEC32F000018451A5
:10290000030A07E1010E4F26000E502251225222E7
:10291000346A8451040A0FE1010E006E000E016E4C
:10292000026E036E00504F5E0150505A0250515AD1
:102930000350525A346A740E936F000E946F720EE5
:10294000956F7A0E966F000E976F4FC098F050C03B
:1029500099F051C09AF052C09BF091EC3AF0020EFF
:10296000936F010E946F740E956F000E966F79EC55
:1029700039F0746B8451050A07E1070E726F346AEF
:10298000010EC96F76EC37F027D1740E0001936FFA
:10299000000E946FD40E956F780E966F000E976FA1
:1029A00066EC3AF0010E0001936F010E946F740E05
:1029B000956F000E966F79EC39F0AEEC32F00001B5
:1029C0008451030A1BE161C000F062C001F063C0E2
:1029D00002F064C003F0000E046E000E056E000EDF
:1029E000066E7E0E076E17EC2AF000C061F001C083
:1029F00062F002C063F003C064F0346A8451040AD8
:102A00001BE1000E046E000E056E000E066E7E0EBB
:102A1000076E61C000F062C001F063C002F064C0E4
:102A200003F085EC3BF000C061F001C062F002C031
:102A300063F003C064F0346A740E936F000E946FF9
:102A4000760E956F7A0E966F000E976F61C098F0B4
:102A500062C099F063C09AF064C09BF091EC3AF0C8
:102A6000020E936F010E946F740E956F000E966FA9
:102A700079EC39F0746B8451050A07E1080E726F26
:102A8000346A010EC96F76EC37F0A6D0740E0001DF
:102A9000936F000E946FE00E956F780E966F000E98
:102AA000976F66EC3AF0010E0001936F010E946F80
:102AB000740E956F000E966F79EC39F0AEEC32F033
:102AC00000018451030A1BE15BC000F05CC001F00F
:102AD0005DC002F05EC003F0CD0E046ECC0E056E3C
:102AE0004C0E066E7B0E076E17EC2AF000C05BF0F2
:102AF00001C05CF002C05DF003C05EF0346A845136
:102B0000040A1BE1CD0E046ECC0E056E4C0E066E53
:102B10007B0E076E5BC000F05CC001F05DC002F090
:102B20005EC003F085EC3BF000C05BF001C05CF0E0
:102B300002C05DF003C05EF0346A740E936F000E45
:102B4000946F7A0E956F7A0E966F000E976F5BC03A
:102B500098F05CC099F05DC09AF05EC09BF091EC7B
:102B60003AF0020E936F010E946F740E956F000E83
:102B7000966F79EC39F08451050A07E1040E726F03
:102B8000346A010EC96F76EC37F026D0000172511D
:102B9000010AD8B4C0EF01F07251020AD8B438EF7C
:102BA00002F07251030AD8B4B1EF0DF07251040A69
:102BB000D8B42FEF0FF07251050AD8B4FCEF10F023
:102BC0007251060AD8B481D67251070AD8B4DDD63C
:102BD0007251080AD8B45AD70001AEEC32F000C0E6
:102BE00084F0BDEF01F0FFD7280E0001A76F6E0E35
:102BF000A86F750EA96F6C0EAA6F6C0EAB6F290EC5
:102C0000AC6FAD6BB56BB66BB36BB46B0001A2C0B0
:102C100000F0A3C001F0A4C002F0010EA227000E34
:102C2000A323A42300C0F6FF01C0F7FF02C0F8FFF2
:102C30000900F5CF00F000C0B0F00052D8B413EF97
:102C400027F0B051250A0BE0A0C0E1FFA1C0E2FFD0
:102C5000B0C0E6FFA04BA12BB54BB62BD7D7B16BBD
:102C6000B26BB36BB46B000123D0B387010EA22704
:102C7000000EA323A4235AD0B381010EA227000E75
:102C8000A323A42353D0B383010EA227000EA323B2
:102C9000A4234CD0B487010EA227000EA323A423A3
:102CA00045D0B385010EA227000EA323A4233ED056
:102CB0000001A2C0F6FFA3C0F7FFA4C0F8FF0900FF
:102CC000F5CFC1F0C1512D0AD0E0A2C0F6FFA3C0DC
:102CD000F7FFA4C0F8FF0900F5CFC1F0C151200AE9
:102CE000CBE0A2C0F6FFA3C0F7FFA4C0F8FF090025
:102CF000F5CFC1F0C1512B0AC6E0A2C0F6FFA3C0B8
:102D0000F7FFA4C0F8FF0900F5CFC1F0C151230AB5
:102D1000C1E0A2C0F6FFA3C0F7FFA4C0F8FF0900FE
:102D2000F5CFC1F0C151300ABCE001D09CD7000101
:102D3000B3B3B391B3B7B395A2C0F6FFA3C0F7FF87
:102D4000A4C0F8FF0900F5CF00F0000E016E00C02E
:102D5000C9F033EC3BF0005238E00001B16BB26BCC
:102D60000001B1C000F0B2C001F00A0E046E000E06
:102D7000056E01EC3AF0A2C0F6FFA3C0F7FFA4C0B5
:102D8000F8FF0900F5CFC1F0C1510024B16F000E6A
:102D90000120B26F300EB15F000EB25B010EA227B0
:102DA000000EA323A423A2C0F6FFA3C0F7FFA4C074
:102DB000F8FF0900F5CF00F0000E016E00C0C9F069
:102DC00033EC3BF00052CCE136D0A2C0F6FFA3C0FA
:102DD000F7FFA4C0F8FF0900F5CFC1F00001C15111
:102DE0002A0A29E1A5C0E9FFA6C0EAFFEECF00F05C
:102DF000EECF01F000C0E9FF01C0EAFFEECFB1F075
:102E0000EECFB2F0A5C0E9FFA6C0EAFFEECF00F01A
:102E1000EECF01F0020E0026000E0122A5C0E1FF58
:102E2000A6C0E2FF00C0E6FF01C0E6FF010EA22738
:102E3000000EA323A4230001A2C0F6FFA3C0F7FF46
:102E4000A4C0F8FF0900F5CFC1F0C1512E0A73E10B
:102E5000010EA227000EA323A423A2C0F6FFA3C045
:102E6000F7FFA4C0F8FF0900F5CFC1F0C1512A0A4D
:102E70002AE1A5C0E9FFA6C0EAFFEECF00F0EECF41
:102E800001F000C0E9FF01C0EAFFEECFAEF0EECFE7
:102E9000AFF0A5C0E9FFA6C0EAFFEECF00F0EECF8D
:102EA00001F0020E0026000E0122A5C0E1FFA6C01F
:102EB000E2FF00C0E6FF01C0E6FF010EA227000E00
:102EC000A323A42336D0AE6BAF6BA2C0F6FFA3C082
:102ED000F7FFA4C0F8FF0900F5CF00F0000E016E67
:102EE00000C0C9F033EC3BF0005223E0AEC000F06C
:102EF000AFC001F00A0E046E000E056E01EC3AF050
:102F0000A2C0F6FFA3C0F7FFA4C0F8FF0900F5CFE9
:102F1000C1F0C1510024AE6F000E0120AF6F300E22
:102F2000AE5F000EAF5B010EA227000EA323A42309
:102F3000CCD7000104D00001AE6BAF6BB4890001A7
:102F4000A2C000F0A3C001F0A4C002F0010EA227AD
:102F5000000EA323A42300C0F6FF01C0F7FF02C0A8
:102F6000F8FF0900F5CFB0F0EDD0B5C000F0B6C065
:102F700001F01200B389E3D7B4851FD1B38BB481BC
:102F80001CD1B4831AD1B38D18D117D1B38BB38FA1
:102F900014D1A5C0E9FFA6C0EAFFEECF00F0EECF46
:102FA00001F000C0E9FF01C0EAFFEECFBDF0EECFB7
:102FB000BEF0A5C0E9FFA6C0EAFFEECF00F0EECF5D
:102FC00001F0020E0026000E0122A5C0E1FFA6C0FE
:102FD000E2FF00C0E6FF01C0E6FF000EBE1902E1FD
:102FE000000EBD1904E1A70EBD6F000EBE6F0001FB
:102FF000BF6BC06BBF51BD25E96EC051BE21EA6EEB
:10300000EECF00F0005203E0BF4BC02BF3D7AE5120
:10301000AF110AE0C051AF5D02E1BF51AE5D04E205
:10302000AEC0BFF0AFC0C0F00001B251C05D02E160
:10303000B151BF5D05E2BF51B15FC051B25B03D07A
:103040000001B16BB26BB3B716D0B1C000F0B2C023
:1030500001F0010EB15F000EB25B005001100BE0F9
:10306000A0C0E1FFA1C0E2FF200EE66EA04BA12BA5
:10307000B54BB62BEAD7BFC000F0C0C001F0010EBF
:10308000BF5F000EC05B0050011013E0BDC0E9FF40
:10309000BEC0EAFFEECF00F0A0C0E1FFA1C0E2FF9A
:1030A00000C0E6FFA04BA12BBD4BBE2BB54BB62BF2
:1030B000E2D7B3A716D0B1C000F0B2C001F0010E44
:1030C000B15F000EB25B005001100BE0A0C0E1FF49
:1030D000A1C0E2FF200EE66EA04BA12BB54BB62B94
:1030E000EAD794D5A5C0E9FFA6C0EAFFEECF00F06D
:1030F000EECF01F000C0E9FF01C0EAFFEECFB0F073
:10310000A5C0E9FFA6C0EAFFEECF00F0EECF01F0C8
:10311000020E0026000E0122A5C0E1FFA6C0E2FFBC
:1031200000C0E6FF01C0E6FFB00EBD6F000EBE6F2F
:10313000010EBF6F000EC06F6AD7C00EB313000E32
:10314000B4133BD0B051000AD8B40FD7B0516C0AB9
:10315000D8B410D7B051660AD8B40ED7B051450ACA
:10316000D8B40CD7B051650AD8B409D7B051670AA2
:10317000D8B407D7B0516F0AD8B405D7B051640A94
:10318000D8B403D7B051690AD8B4FFD6B051700A89
:10319000D8B4FCD6B051580AD8B4F8D6B051780A91
:1031A000D8B4F5D6B051730AD8B4F3D6B051630A87
:1031B00099E0B051750AC1E0B7D70001000EB31510
:1031C000006EB451070B016E00500110D8B44FEFE0
:1031D00022F0B4A904D0060EAE6F000EAF6FA5C0EA
:1031E000E9FFA6C0EAFFEECF00F0EECF01F000C08D
:1031F000E9FF01C0EAFFEECFB7F0EECFB8F0EECFB7
:10320000B9F0EECFBAF0A5C0E9FFA6C0EAFFEECF55
:1032100000F0EECF01F0040E0026000E0122A5C042
:10322000E1FFA6C0E2FF00C0E6FF01C0E6FF046ABE
:10323000056A066A076AB7C000F0B8C001F0B9C0F5
:1032400002F0BAC003F0EDEC37F0010ED8B0000E7A
:10325000006E005205E0B97F030EB313000EB413E5
:103260000001BB6BBC6BB7C000F0B8C001F0B9C0C7
:1032700002F0BAC003F0046A056A066A076AB7EC8E
:103280003AF0000ED8A4010E006E0052D8B496D0C9
:10329000BAC000F0016A026A036AFF0E0014C56F2B
:1032A000000EC66F000EC6177E0EC16F000EC26FF5
:1032B000C36FC46FC151C55D006EC251C659016E66
:1032C00000C0BBF001C0BCF0010E005CBB6F000E83
:1032D0000158BC6FBBC000F0BCC001F0030E046E0F
:1032E000000E056E01EC3AF000C0BBF001C0BCF06E
:1032F0000A0E046E000E056E55EC38F000C0BBF0EF
:1033000001C0BCF0800E0118C16F800EC15D02E1EA
:10331000000E005C04E2010EBB5F000EBC5B00010E
:10332000BB510008C96F18EC27F0B7C004F0B8C053
:1033300005F0B9C006F0BAC007F0E2EC36F000C004
:10334000BDF001C0BEF002C0BFF003C0C0F0000E6F
:10335000046E000E056E000E066E7F0E076EBDC079
:1033600000F0BEC001F0BFC002F0C0C003F0EDEC41
:1033700037F0010ED8B0000E006E005205E0010ECD
:10338000BB5F000EBC5B1AD0000E046E000E056E13
:10339000200E066E820E076EBDC000F0BEC001F0AA
:1033A000BFC002F0C0C003F0EDEC37F0000ED8B0A3
:1033B000010E006E005202E0BB4BBC2B0001800EE0
:1033C000006E800EBC19005C02E1BB51000803E3F3
:1033D000010EB06F03D00001BBC0B0F0B4B11AD081
:1033E000B4A315D0800EBC19006E7F0E005C02E104
:1033F000FC0EBB5D0AE3800EBC19006E800EAF1997
:10340000005C02E1AE51BB5D02E3000103D00001AC
:1034100042EF1EF00001AE51AF1106E0B4A304D09C
:10342000010EAE5F000EAF5B000E006EAF51005C90
:1034300002E1AE51080803E2080EB06F03D00001AC
:10344000AEC0B0F0B7C000F0B8C001F0B9C002F033
:10345000BAC003F0046A056A066A076AB7EC3AF074
:10346000000ED8A4010E006E0052D8B460D1BBC0CB
:10347000C9F018EC27F000C004F001C005F002C04C
:1034800006F003C007F0B7C000F0B8C001F0B9C043
:1034900002F0BAC003F001EC35F000C0B7F001C093
:1034A000B8F002C0B9F003C0BAF0B0510008C96F5B
:1034B00018EC27F000C004F001C005F002C006F0CF
:1034C00003C007F0B7C000F0B8C001F0B9C002F007
:1034D000BAC003F001EC35F000C0C1F001C0C2F089
:1034E00002C0C3F003C0C4F0C1C0B7F0C2C0B8F09E
:1034F000C3C0B9F0C4C0BAF0C1C000F0C2C001F08E
:10350000C3C002F0C4C003F0ABEC35F0CFEC3AF02E
:1035100000C004F001C005F002C006F003C007F0CF
:10352000C1C000F0C2C001F0C3C002F0C4C003F0CB
:1035300085EC3BF0000E046E000E056E000E066E6C
:103540007E0E076EEDEC37F0000ED8B0010E006E67
:1035500000521AE0B7C000F0B8C001F0B9C002F0E4
:10356000BAC003F0000E046E000E056E000E066E6B
:103570007E0E076E17EC2AF000C0B7F001C0B8F05D
:1035800002C0B9F003C0BAF0B7C000F0B8C001F093
:10359000B9C002F0BAC003F0ABEC35F000C0C5F022
:1035A00001C0C6F002C0C7F003C0C8F0B051010F9F
:1035B000006E016A000E0122020E046E000E01BEB2
:1035C000FF0E026E036E0450000107E0003600900B
:1035D000013602360336FF0FF7D70001860E0026AC
:1035E000770E0122000E022200C0F6FF01C0F7FF95
:1035F00002C0F8FF0900F5CFC1F00900F5CFC2F015
:103600000900F5CFC3F00900F5CFC4F0C451C85D7F
:1036100008E1C351C75D05E1C251C65D02E1C15178
:10362000C55D1DE3B7C000F0B8C001F0B9C002F03D
:10363000BAC003F0CD0E046ECC0E056E4C0E066EB5
:103640007B0E076EE2EC36F000C0B7F001C0B8F0B8
:1036500002C0B9F003C0BAF0BB4BBC2B68D000016C
:10366000B7C000F0B8C001F0B9C002F0BAC003F0B2
:10367000ABEC35F000C0C5F001C0C6F002C0C7F029
:1036800003C0C8F0020E046EB0C000F0000E016E60
:10369000026E036E0450000107E000360090013610
:1036A00002360336FF0FF7D70001860E0026770E8D
:1036B0000122000E022200C0F6FF01C0F7FF02C087
:1036C000F8FF0900F5CFC1F00900F5CFC2F00900FD
:1036D000F5CFC3F00900F5CFC4F0C451C85D08E1CF
:1036E000C351C75D05E1C251C65D02E1C151C55D6F
:1036F0001EE2B7C000F0B8C001F0B9C002F0BAC015
:1037000003F0000E046E000E056E200E066E820E93
:10371000076EE2EC36F000C0B7F001C0B8F002C0AE
:10372000B9F003C0BAF0010EBB5F000EBC5B000134
:10373000B4A395D0B4B793D0800E000A006E800E6B
:10374000AF19005C02E1AE510A0804E20A0EAE6F46
:10375000000EAF6F0001B7C000F0B8C001F0B9C0F3
:1037600002F0BAC003F0ABEC35F000C0BDF001C010
:10377000BEF002C0BFF003C0C0F0BD51BE11BF110A
:10378000C01142E00A0E046E000E056E066E076E52
:10379000BDC000F0BEC001F0BFC002F0C0C003F069
:1037A000BCEC2DF008C000F009C001F00AC002F026
:1037B0000BC003F0000EC16F031808E1C1510218DD
:1037C00005E1C151011802E10050000A1DE1010E9E
:1037D000AE5F000EAF5B0A0E046E000E056E066E45
:1037E000076EBDC000F0BEC001F0BFC002F0C0C097
:1037F00003F0BCEC2DF000C0BDF001C0BEF002C073
:10380000BFF003C0C0F0B9D70001800EAF19006E41
:10381000800E005C02E1B051AE5D21E2AE51B05DC0
:10382000C96F18EC27F000C004F001C005F002C019
:1038300006F003C007F0B7C000F0B8C001F0B9C08F
:1038400002F0BAC003F001EC35F000C0B7F001C0DF
:10385000B8F002C0B9F003C0BAF0AEC0B0F00001D9
:10386000050EAE25006E000EAF21016E0050B15F57
:103870000150B25BAE51AF1102E1B4A704D0010E0A
:10388000B15F000EB25B030EB315006EB4C001F061
:10389000000E01160050011004E0010EB15F000E91
:1038A000B25BB3A54AD0B3A31AD0010EB315006E14
:1038B000B4C001F0000E01160050011003E02D0EFF
:1038C000006E02D02B0E006EA0C0E1FFA1C0E2FF8F
:1038D00000C0E6FFA04BA12BB54BB62B14D0010EB8
:1038E000B315006EB4C001F0000E011600500110B7
:1038F0000AE0A0C0E1FFA1C0E2FF200EE66EA04BEF
:10390000A12BB54BB62B800E006E800EB219005C59
:1039100002E1B15100080FE2A0C0E1FFA1C0E2FF47
:10392000300EE66EA04BA12BB54BB62B010EB15F4E
:10393000000EB25BE8D700014BD0B3B718D0800EB1
:10394000006E800EB219005C02E1B15100080FE276
:10395000A0C0E1FFA1C0E2FF200EE66EA04BA12BAC
:10396000B54BB62B010EB15F000EB25BE8D700017C
:10397000B3A31AD0010EB315006EB4C001F0000E4F
:1039800001160050011003E02D0E006E02D02B0E28
:10399000006EA0C0E1FFA1C0E2FF00C0E6FFA04BA7
:1039A000A12BB54BB62B14D0010EB315006EB4C0CD
:1039B00001F0000E0116005001100AE0A0C0E1FF66
:1039C000A1C0E2FF200EE66EA04BA12BB54BB62B9B
:1039D0000001B7C000F0B8C001F0B9C002F0BAC031
:1039E00003F0ABEC35F000C0BDF001C0BEF002C08A
:1039F000BFF003C0C0F0020E046EB0C000F0000EB5
:103A0000016E026E036E0450000107E00036009064
:103A1000013602360336FF0FF7D70001860E002667
:103A2000770E0122000E022200C0F6FF01C0F7FF50
:103A300002C0F8FF0900F5CF04F00900F5CF05F04A
:103A40000900F5CF06F00900F5CF07F0BDC000F082
:103A5000BEC001F0BFC002F0C0C003F0BCEC2DF04E
:103A6000300E0026A0C0E1FFA1C0E2FF00C0E6FFCB
:103A7000A04BA12BB54BB62BAE51AF1102E1B4A7B1
:103A800075D0A0C0E1FFA1C0E2FF2E0EE66EA04BF4
:103A9000A12BB54BB62BB051AE5F000EAF5BB05350
:103AA00053E0B007020E046EB0C000F0000E016ECD
:103AB000026E036E0450000107E0003600900136EC
:103AC00002360336FF0FF7D70001860E0026770E69
:103AD0000122000E022200C0F6FF01C0F7FF02C063
:103AE000F8FF0900F5CF04F00900F5CF05F0090053
:103AF000F5CF06F00900F5CF07F0BDC000F0BEC05D
:103B000001F0BFC002F0C0C003F0BCEC2DF00A0E03
:103B1000046E000E056E066E076EBCEC2DF008C03C
:103B200000F009C001F00AC002F00BC003F0300E33
:103B30000026A0C0E1FFA1C0E2FF00C0E6FFA04B4D
:103B4000A12BB54BB62BABD7AE51AF110FE0A0C038
:103B5000E1FFA1C0E2FF300EE66EA04BA12BB54BFA
:103B6000B62B010EAE5F000EAF5BEED7B3AB0BD042
:103B7000A0C0E1FFA1C0E2FF450EE66EA04BA12B65
:103B8000B54BB62B0AD0A0C0E1FFA1C0E2FF650E85
:103B9000E66EA04BA12BB54BB62B800EBC19006E68
:103BA000800E005C02E1000EBB5D12E2BB5100081A
:103BB000BB6FBCC0BCF0E86ABC57A0C0E1FFA1C0AD
:103BC000E2FF2D0EE66EA04BA12BB54BB62B0BD012
:103BD0000001A0C0E1FFA1C0E2FF2B0EE66EA04BEA
:103BE000A12BB54BB62B0A0E046E000E056EBBC0A2
:103BF00000F0BCC001F055EC38F0300E0026A0C03B
:103C0000E1FFA1C0E2FF00C0E6FFA04BA12BB54B36
:103C1000B62B0A0E046E000E056EBBC000F0BCC0D1
:103C200001F055EC38F008C000F009C001F0300E8A
:103C30000026A0C0E1FFA1C0E2FF00C0E6FFA04B4C
:103C4000A12BB54BB62BB3A71AD0800E006E800EF9
:103C5000B219005C02E1B151000811E2A0C0E1FF1D
:103C6000A1C0E2FF200EE66EA04BA12BB54BB62BF8
:103C7000010EB15F000EB25BB151B211EFE1000174
:103C800006EF16F00001B4A3FAD0800EBC19006E46
:103C9000800E005C02E1000EBB5D0AE2010EBB5D1E
:103CA000006E000EBC59016E0050AE5F0150AF5B5C
:103CB0000001B7C000F0B8C001F0B9C002F0BAC04E
:103CC00003F0ABEC35F000C0BDF001C0BEF002C0A7
:103CD000BFF003C0C0F0010EB06FB0510A0A39E066
:103CE000020E046EB0C000F0000E016E026E036E94
:103CF0000450000107E0003600900136023603361A
:103D0000FF0FF7D70001860E0026770E0122000E66
:103D1000022200C0F6FF01C0F7FF02C0F8FF090051
:103D2000F5CFC1F00900F5CFC2F00900F5CFC3F01F
:103D30000900F5CFC4F0C451C05D08E1C351BF5DB7
:103D400005E1C251BE5D02E1C151BD5D02E3B02B90
:103D5000C4D70001B051AE5DC56F000EAF59C66F3C
:103D6000C5C0AEF0C6C0AFF0BDC000F0BEC001F02F
:103D7000BFC002F0C0C003F0CFEC3AF000C004F0C6
:103D800001C005F002C006F003C007F0B7C000F0A4
:103D9000B8C001F0B9C002F0BAC003F085EC3BF046
:103DA00000C0C1F001C0C2F002C0C3F003C0C4F043
:103DB000C5C0C9F018EC27F0C1C004F0C2C005F0BE
:103DC000C3C006F0C4C007F0E2EC36F0000E046E8B
:103DD000000E056E000E066E7E0E076E17EC2AF0C2
:103DE000ABEC35F000C0BDF001C0BEF002C0BFF0CA
:103DF00003C0C0F0AE51AF1142E00A0E046E000ED7
:103E0000056E066E076EBDC000F0BEC001F0BFC0FB
:103E100002F0C0C003F0BCEC2DF008C000F009C0F7
:103E200001F00AC002F00BC003F0000EC16F0318CE
:103E300008E1C151021805E1C151011802E1005029
:103E4000000A1DE10A0E046E000E056E066E076E76
:103E5000BDC000F0BEC001F0BFC002F0C0C003F0A2
:103E6000BCEC2DF000C0BDF001C0BEF002C0BFF040
:103E700003C0C0F0010EAE5F000EAF5BBBD7000108
:103E8000800E006E800EAF19005C02E1AE510C088E
:103E900016E3AEC0C9F02BEC2CF0B7C004F0B8C0EC
:103EA00005F0B9C006F0BAC007F017EC2AF000C060
:103EB000B7F001C0B8F002C0B9F003C0BAF0000119
:103EC000B7C000F0B8C001F0B9C002F0BAC003F04A
:103ED000046A056A066A076AB7EC3AF0000ED8A4CD
:103EE000010E006E0052D8B475D0B7C000F0B8C053
:103EF00001F0B9C002F0BAC003F0ABEC35F0000E2F
:103F0000C16F031808E1C151021805E1C151011840
:103F100002E10050000A5EE1800E006E800EBC19C6
:103F2000005C02E1BB51010855E2BBC0C9F018ECCE
:103F300027F000C004F001C005F002C006F003C085
:103F400007F0B7C000F0B8C001F0B9C002F0BAC0C5
:103F500003F001EC35F05F0E046E700E056E090E75
:103F6000066E810E076EEDEC37F0010ED8B0000E34
:103F7000006E005205E0090EBB5F000EBC5B05D071
:103F80000001080EBB5F000EBC5BBBC0C9F018ECA3
:103F900027F000C004F001C005F002C006F003C025
:103FA00007F0B7C000F0B8C001F0B9C002F0BAC065
:103FB00003F001EC35F0ABEC35F000C0BDF001C012
:103FC000BEF002C0BFF003C0C0F0B76BB86BB96BF6
:103FD000BA6B39D00001B7C000F0B8C001F0B9C069
:103FE00002F0BAC003F0ABEC35F000C0BDF001C088
:103FF000BEF002C0BFF003C0C0F0BDC000F0BEC044
:1040000001F0BFC002F0C0C003F0CFEC3AF000C036
:1040100004F001C005F002C006F003C007F0B7C00D
:1040200000F0B8C001F0B9C002F0BAC003F085ECEE
:104030003BF000C0B7F001C0B8F002C0B9F003C057
:10404000BAF0BB6BBC6B010EB06FB0510A0A39E01D
:10405000020E046EB0C000F0000E016E026E036E20
:104060000450000107E000360090013602360336A6
:10407000FF0FF7D70001860E0026770E0122000EF3
:10408000022200C0F6FF01C0F7FF02C0F8FF0900DE
:10409000F5CFC1F00900F5CFC2F00900F5CFC3F0AC
:1040A0000900F5CFC4F0C451C05D08E1C351BF5D44
:1040B00005E1C251BE5D02E1C151BD5D02E3B02B1D
:1040C000C4D70001B051AE25006E000EAF21016EC5
:1040D000BB510026BC5101220050B15F0150B25BC0
:1040E000B4B703D0AE51AF1104E0010EB15F000EC2
:1040F000B25B030EB315006EB4C001F0000E0116E2
:104100000050011004E0010EB15F000EB25BB3A5D8
:104110004AD0B3A31AD0010EB315006EB4C001F09B
:10412000000E01160050011003E02D0E006E02D0AB
:104130002B0E006EA0C0E1FFA1C0E2FF00C0E6FFB1
:10414000A04BA12BB54BB62B14D0010EB315006EAE
:10415000B4C001F0000E0116005001100AE0A0C02A
:10416000E1FFA1C0E2FF200EE66EA04BA12BB54BF4
:10417000B62B800E006E800EB219005C02E1B151C8
:1041800000080FE2A0C0E1FFA1C0E2FF300EE66E22
:10419000A04BA12BB54BB62B010EB15F000EB25B4D
:1041A000E8D700014BD0B3B718D0800E006E800E58
:1041B000B219005C02E1B15100080FE2A0C0E1FFBA
:1041C000A1C0E2FF200EE66EA04BA12BB54BB62B93
:1041D000010EB15F000EB25BE8D70001B3A31AD0A5
:1041E000010EB315006EB4C001F0000E01160050B0
:1041F000011003E02D0E006E02D02B0E006EA0C049
:10420000E1FFA1C0E2FF00C0E6FFA04BA12BB54B30
:10421000B62B14D0010EB315006EB4C001F0000E21
:104220000116005001100AE0A0C0E1FFA1C0E2FFAA
:10423000200EE66EA04BA12BB54BB62B0001B0C0F3
:1042400000F0B007005252E0020E046EB0C000F061
:10425000000E016E026E036E0450000107E000368E
:104260000090013602360336FF0FF7D70001860EA5
:104270000026770E0122000E022200C0F6FF01C0C8
:10428000F7FF02C0F8FF0900F5CF04F00900F5CFF1
:1042900005F00900F5CF06F00900F5CF07F0BDC025
:1042A00000F0BEC001F0BFC002F0C0C003F0BCEC23
:1042B0002DF00A0E046E000E056E066E076EBCEC45
:1042C0002DF008C000F009C001F00AC002F00BC0D8
:1042D00003F0300E0026A0C0E1FFA1C0E2FF00C045
:1042E000E6FFA04BA12BB54BB62BA8D7800E006ED6
:1042F000800EBC19005C02E1BB5100080FE2A0C0B7
:10430000E1FFA1C0E2FF300EE66EA04BA12BB54B42
:10431000B62B010EBB5F000EBC5BE8D70001800E20
:10432000000A006E800EAF19005C02E1AE51080871
:1043300003E2080EB06F03D00001AEC0B0F0B05180
:10434000AE5F000EAF5BB05302E1B4A70AD0A0C0CD
:10435000E1FFA1C0E2FF2E0EE66EA04BA12BB54BF4
:10436000B62BB0C0C9F018EC27F0B7C004F0B8C045
:1043700005F0B9C006F0BAC007F0E2EC36F048EC40
:1043800036F000C0BDF001C0BEF002C0BFF003C0F7
:10439000C0F0B05353E0B007020E046EB0C000F09E
:1043A000000E016E026E036E0450000107E000363D
:1043B0000090013602360336FF0FF7D70001860E54
:1043C0000026770E0122000E022200C0F6FF01C077
:1043D000F7FF02C0F8FF0900F5CF04F00900F5CFA0
:1043E00005F00900F5CF06F00900F5CF07F0BDC0D4
:1043F00000F0BEC001F0BFC002F0C0C003F0BCECD2
:104400002DF00A0E046E000E056E066E076EBCECF3
:104410002DF008C000F009C001F00AC002F00BC086
:1044200003F0300E0026A0C0E1FFA1C0E2FF00C0F3
:10443000E6FFA04BA12BB54BB62BABD7AE51AF11BE
:104440000FE0A0C0E1FFA1C0E2FF300EE66EA04B7E
:10445000A12BB54BB62B010EAE5F000EAF5BEED7B6
:10446000B3A71AD0800E006E800EB219005C02E174
:10447000B151000811E2A0C0E1FFA1C0E2FF200E8F
:10448000E66EA04BA12BB54BB62B010EB15F000E13
:10449000B25BB151B211EFE1000106EF16F0C00EB0
:1044A000B315C16FB4C0C2F0000EC217000EC2191E
:1044B00002E1000EC119D8A482D0B3A929D0A5C0A9
:1044C000E9FFA6C0EAFFEECF00F0EECF01F000C09A
:1044D000E9FF01C0EAFFEECFBDF0EECFBEF0EECFB8
:1044E000BFF0EECFC0F0A5C0E9FFA6C0EAFFEECF57
:1044F00000F0EECF01F0040E0026000E0122A5C050
:10450000E1FFA6C0E2FF00C0E6FF01C0E6FF2ED03B
:10451000A5C0E9FFA6C0EAFFEECF00F0EECF01F0A4
:1045200000C0E9FF01C0EAFFEECFBDF0EECFBEF064
:10453000000EBEBFFF0EBF6FC06F000EBEBFFF0EEE
:10454000BF6FC06FA5C0E9FFA6C0EAFFEECF00F0C5
:10455000EECF01F0020E0026000E0122A5C0E1FF01
:10456000A6C0E2FF00C0E6FF01C0E6FF800EC01952
:10457000006E800E005C08E1000EBF5D05E1000EDC
:10458000BE5D02E1000EBD5D18E2030EB313000E26
:10459000B413006A016A026A036ABD51005EBE512B
:1045A000015ABF51025AC051035A00C0BDF001C0A8
:1045B000BEF002C0BFF003C0C0F0000156D0000141
:1045C000B3A929D0A5C0E9FFA6C0EAFFEECF00F04D
:1045D000EECF01F000C0E9FF01C0EAFFEECFBDF071
:1045E000EECFBEF0EECFBFF0EECFC0F0A5C0E9FF3A
:1045F000A6C0EAFFEECF00F0EECF01F0040E0026D9
:10460000000E0122A5C0E1FFA6C0E2FF00C0E6FF48
:1046100001C0E6FF2AD0A5C0E9FFA6C0EAFFEECFA1
:1046200000F0EECF01F000C0E9FF01C0EAFFEECFDD
:10463000BDF0EECFBEF0000EBF6FC06F000EBF6FBB
:10464000C06FA5C0E9FFA6C0EAFFEECF00F0EECF35
:1046500001F0020E0026000E0122A5C0E1FFA6C057
:10466000E2FF00C0E6FF01C0E6FF0001000EAF1947
:1046700002E1000EAE190FE1000E006EC01908E154
:104680000050BF1905E10050BE1902E1BD51000AFA
:1046900002E1AE4BAF2B0001C00EB315006E00C09F
:1046A000C5F0C0D0010EB06FB0510A0A39E0020E59
:1046B000046EB0C000F0000E016E026E036E045076
:1046C000000107E000360090013602360336FF0F86
:1046D000F7D70001860E0026770E0122000E022277
:1046E00000C0F6FF01C0F7FF02C0F8FF0900F5CFD8
:1046F000C1F00900F5CFC2F00900F5CFC3F0090001
:10470000F5CFC4F0C451C05D08E1C351BF5D05E100
:10471000C251BE5D02E1C151BD5D02E3B02BC4D701
:1047200000018FD0010EB06FB051080A39E0020EBF
:10473000046EB0C000F0000E016E026E036E0450F5
:10474000000107E000360090013602360336FF0F05
:10475000F7D70001AE0E0026770E0122000E0222CE
:1047600000C0F6FF01C0F7FF02C0F8FF0900F5CF57
:10477000C1F00900F5CFC2F00900F5CFC3F0090080
:10478000F5CFC4F0C451C05D08E1C351BF5D05E180
:10479000C251BE5D02E1C151BD5D02E3B02BC4D781
:1047A00000014FD0010EB06FB0510C0A39E0020E7B
:1047B000046EB0C000F0000E016E026E036E045075
:1047C000000107E000360090013602360336FF0F85
:1047D000F7D70001CE0E0026770E0122000E02222E
:1047E00000C0F6FF01C0F7FF02C0F8FF0900F5CFD7
:1047F000C1F00900F5CFC2F00900F5CFC3F0090000
:10480000F5CFC4F0C451C05D08E1C351BF5D05E1FF
:10481000C251BE5D02E1C151BD5D02E3B02BC4D700
:1048200000010FD0C551000AD8B43CD7C551C00A09
:10483000D8B438D7C551800AD8B474D7C551400A06
:10484000B1E00001800E006E800EAF19005C02E145
:10485000AE51B05D03E2AEC0B0F00ED00001800EEC
:10486000AF19006E800E005C02E1B051AE5D04E253
:10487000B0C0AEF0000EAF6F0001B151B2110EE04A
:10488000030EB315006EB4C001F0000E0116005007
:10489000011004E0010EB15F000EB25B800EAF1993
:1048A000006E800EB219005C02E1B151AE5D05E20E
:1048B000AE51B15FAF51B25B03D00001B16BB26BCF
:1048C000C40EB315C16FB451080BC26FC251080AB0
:1048D00002E1400EC11908E1B151B21104E0010E2C
:1048E000B15F000EB25B1ED00001C00EB315C16FE8
:1048F000B451080BC26FC251080A02E1800EC119FF
:1049000011E1800E006E800EB219005C02E1B1511F
:10491000020805E2020EB15F000EB25B03D0000197
:10492000B16BB26B0001B3A56ED0B3A31AD0010E68
:10493000B315006EB4C001F0000E01160050011056
:1049400003E02D0E006E02D02B0E006EA0C0E1FF22
:10495000A1C0E2FF00C0E6FFA04BA12BB54BB62BD8
:104960003CD0010EB315006EB4C001F0000E01166C
:10497000005001100BE0A0C0E1FFA1C0E2FF200E3B
:10498000E66EA04BA12BB54BB62B27D0C00EB315AE
:10499000C16FB451080BC26FC251080A02E1800E08
:1049A000C1191BE1A0C0E1FFA1C0E2FF300EE66E1D
:1049B000A04BA12BB54BB62BB3AB03D0580E006E5A
:1049C00002D0780E006EA0C0E1FFA1C0E2FF00C0DF
:1049D000E6FFA04BA12BB54BB62B0001B151B21194
:1049E00011E0A0C0E1FFA1C0E2FF300EE66EA04BD7
:1049F000A12BB54BB62B010EB15F000EB25BB151CE
:104A0000B211EFE185D0B151B21113E0B3B711D0BB
:104A1000A0C0E1FFA1C0E2FF200EE66EA04BA12BDB
:104A2000B54BB62B010EB15F000EB25BB151B211A6
:104A3000EFE1B3A31AD0010EB315006EB4C001F0BC
:104A4000000E01160050011003E02D0E006E02D082
:104A50002B0E006EA0C0E1FFA1C0E2FF00C0E6FF88
:104A6000A04BA12BB54BB62B14D0010EB315006E85
:104A7000B4C001F0000E0116005001100AE0A0C001
:104A8000E1FFA1C0E2FF200EE66EA04BA12BB54BCB
:104A9000B62BC00EB315C16FB451080BC26FC25113
:104AA000080A02E1400EC1190BE1A0C0E1FFA1C05C
:104AB000E2FF300EE66EA04BA12BB54BB62B28D0F3
:104AC0000001C00EB315C16FB451080BC26FC251C3
:104AD000080A02E1800EC1191BE1A0C0E1FFA1C0DC
:104AE000E2FF300EE66EA04BA12BB54BB62BB3AB5D
:104AF00003D0580E006E02D0780E006EA0C0E1FF09
:104B0000A1C0E2FF00C0E6FFA04BA12BB54BB62B26
:104B10000001800E006E800EAF19005C02E1AE5104
:104B2000B05D0BE2A0C0E1FFA1C0E2FF300EE66E77
:104B3000A04BA12BB54BB62BEBD70001AEC000F0BC
:104B4000AFC001F0010EAE5F000EAF5B0050011070
:104B5000D8B44AD1C00EB315006E00C0C1F029D13F
:104B6000020E046EAEC000F0AFC001F0000EAFBF89
:104B7000FF0E026E036E0450000107E00036009045
:104B8000013602360336FF0FF7D70001860E0026E6
:104B9000770E0122000E022200C0F6FF01C0F7FFCF
:104BA00002C0F8FF0900F5CF04F00900F5CF05F0C9
:104BB0000900F5CF06F00900F5CF07F0BDC000F001
:104BC000BEC001F0BFC002F0C0C003F0BCEC2DF0CD
:104BD0000A0E046E000E056E066E076EBCEC2DF01C
:104BE00008C000F009C001F00AC002F00BC003F0D9
:104BF000300E0024B06FECD0B3AB4ED0020E046E7A
:104C0000AEC000F0AFC001F0000EAFBFFF0E026EED
:104C1000036E0450000107E00036009001360236B2
:104C20000336FF0FF7D70001AE0E0026770E0122E4
:104C3000000E022200C0F6FF01C0F7FF02C0F8FF1D
:104C40000900F5CF04F00900F5CF05F00900F5CF14
:104C500006F00900F5CF07F0BDC000F0BEC001F0BE
:104C6000BFC002F0C0C003F0BCEC2DF00F0E001668
:104C7000000E011602160316FE0E0026770E012204
:104C8000000E022200C0F6FF01C0F7FF02C0F8FFCD
:104C90000900F5CFB0F04DD0020E046EAEC000F0AA
:104CA000AFC001F0000EAFBFFF0E026E036E0450E6
:104CB000000107E000360090013602360336FF0F90
:104CC000F7D70001AE0E0026770E0122000E022259
:104CD00000C0F6FF01C0F7FF02C0F8FF0900F5CFE2
:104CE00004F00900F5CF05F00900F5CF06F0090042
:104CF000F5CF07F0BDC000F0BEC001F0BFC002F0AC
:104D0000C0C003F0BCEC2DF00F0E0016000E011613
:104D100002160316100E0026780E0122000E022243
:104D200000C0F6FF01C0F7FF02C0F8FF0900F5CF91
:104D3000B0F000014DD0020E046EAEC000F0AFC066
:104D400001F0000EAFBFFF0E026E036E04500001B3
:104D500007E000360090013602360336FF0FF7D722
:104D60000001CE0E0026770E0122000E022200C0A6
:104D7000F6FF01C0F7FF02C0F8FF0900F5CF04F00D
:104D80000900F5CF05F00900F5CF06F00900F5CFD1
:104D900007F0BDC000F0BEC001F0BFC002F0C0C04F
:104DA00003F0BCEC2DF0070E0014B06F300EB027EE
:104DB0000FD0C151000AD8B4D3D6C151C00AD8B45B
:104DC000CFD6C151800AD8B417D7C151400AB3E039
:104DD0000001A0C0E1FFA1C0E2FFB0C0E6FFA04B10
:104DE000A12BB54BB62BA9D6B3A71AD0800E006E57
:104DF000800EB219005C02E1B151000811E2A0C0BE
:104E0000E1FFA1C0E2FF200EE66EA04BA12BB54B47
:104E1000B62B010EB15F000EB25BB151B211EFE1E2
:104E2000000106EF16F0B5C000F0B6C001F01200A8
:104E3000800E0001C919006E800E000A005CD8B017
:104E40007ED1C9510008046E04C0C9F0800E041858
:104E5000006E800E6E0A005CD8A0C6D0640E046E90
:104E6000C9C000F01EEC39F0120E0026000E00BE84
:104E7000FF0E016E000E0122020E046E000E01BE36
:104E8000FF0E026E036E0450000107E00036009032
:104E9000013602360336FF0FF7D700011E0E00263B
:104EA000770E0122000E022200C0F6FF01C0F7FFBC
:104EB00002C0F8FF0900F5CFCAF00900F5CFCBF02A
:104EC0000900F5CFCCF00900F5CFCDF0640E046EEB
:104ED000C9C000F01EEC39F008C000F00A0E046EE4
:104EE0001EEC39F0090E0026000E00BEFF0E016E0A
:104EF000000E0122020E046E000E01BEFF0E026EB5
:104F0000036E0450000107E00036009001360236BF
:104F10000336FF0FF7D700011E0E0026770E012281
:104F2000000E022200C0F6FF01C0F7FF02C0F8FF2A
:104F30000900F5CF00F00900F5CF01F00900F5CF29
:104F400002F00900F5CF03F0CAC004F0CBC005F0B1
:104F5000CCC006F0CDC007F0E2EC36F000C0CAF0DD
:104F600001C0CBF002C0CCF003C0CDF00A0E046E3D
:104F7000C9C000F01EEC39F008C000F0020E046E4B
:104F8000000E00BEFF0E016E026E036E04500001A3
:104F900007E000360090013602360336FF0FF7D7E0
:104FA00000011E0E0026770E0122000E022200C014
:104FB000F6FF01C0F7FF02C0F8FF0900F5CF00F0CF
:104FC0000900F5CF01F00900F5CF02F00900F5CF97
:104FD00003F0CAC004F0CBC005F0CCC006F0CDC0D1
:104FE00007F0E2EC36F01200800E0A0A006E800E26
:104FF000C919005C76E20A0E046EC9C000F01EEC0E
:1050000039F0090E0026000E00BEFF0E016E000EE4
:105010000122020E046E000E01BEFF0E026E036E30
:105020000450000107E000360090013602360336D6
:10503000FF0FF7D700011E0E0026770E0122000E8B
:10504000022200C0F6FF01C0F7FF02C0F8FF09000E
:10505000F5CFCAF00900F5CFCBF00900F5CFCCF0C1
:105060000900F5CFCDF00A0E046EC9C000F01EECA9
:1050700039F008C000F0020E046E000E00BEFF0EF4
:10508000016E026E036E0450000107E000360090CE
:10509000013602360336FF0FF7D700011E0E002639
:1050A000770E0122000E022200C0F6FF01C0F7FFBA
:1050B00002C0F8FF0900F5CF00F00900F5CF01F0BC
:1050C0000900F5CF02F00900F5CF03F0CAC004F0E3
:1050D000CBC005F0CCC006F0CDC007F0E2EC36F056
:1050E0001200020E046EC9C000F0000EC9BFFF0E10
:1050F000016E026E036E0450000107E0003600905E
:10510000013602360336FF0FF7D700011E0E0026C8
:10511000770E0122000E022200C0F6FF01C0F7FF49
:1051200002C0F8FF0900F5CF00F00900F5CF01F04B
:105130000900F5CF02F00900F5CF03F01200800E50
:10514000C919006E800E6E0A005CD8A0C6D0640E2D
:10515000046EC9C000F01EEC39F0120E0026000EDD
:1051600000BEFF0E016E000E0122020E046E000E44
:1051700001BEFF0E026E036E0450000107E0003610
:105180000090013602360336FF0FF7D70001520EAA
:105190000026770E0122000E022200C0F6FF01C099
:1051A000F7FF02C0F8FF0900F5CFCAF00900F5CFFC
:1051B000CBF00900F5CFCCF00900F5CFCDF0640EAF
:1051C000046EC9C000F01EEC39F008C000F00A0EF1
:1051D000046E1EEC39F0090E0026000E00BEFF0E14
:1051E000016E000E0122020E046E000E01BEFF0EC3
:1051F000026E036E0450000107E000360090013695
:1052000002360336FF0FF7D70001520E0026770E45
:105210000122000E022200C0F6FF01C0F7FF02C00B
:10522000F8FF0900F5CF00F00900F5CF01F0090003
:10523000F5CF02F00900F5CF03F0CAC004F0CBC0EF
:1052400005F0CCC006F0CDC007F0E2EC36F000C0AF
:10525000CAF001C0CBF002C0CCF003C0CDF00A0E02
:10526000046EC9C000F01EEC39F008C000F0020E58
:10527000046E000E00BEFF0E016E026E036E04503F
:10528000000107E000360090013602360336FF0FBA
:10529000F7D70001520E0026770E0122000E0222DF
:1052A00000C0F6FF01C0F7FF02C0F8FF0900F5CF0C
:1052B00000F00900F5CF01F00900F5CF02F0090078
:1052C000F5CF03F0CAC004F0CBC005F0CCC006F0A7
:1052D000CDC007F0E2EC36F01200800E0A0A006E34
:1052E000800EC919005C76E20A0E046EC9C000F097
:1052F0001EEC39F0090E0026000E00BEFF0E016EF6
:10530000000E0122020E046E000E01BEFF0E026EA0
:10531000036E0450000107E00036009001360236AB
:105320000336FF0FF7D70001520E0026770E012239
:10533000000E022200C0F6FF01C0F7FF02C0F8FF16
:105340000900F5CFCAF00900F5CFCBF00900F5CF81
:10535000CCF00900F5CFCDF00A0E046EC9C000F004
:105360001EEC39F008C000F0020E046E000E00BE04
:10537000FF0E016E026E036E0450000107E000365E
:105380000090013602360336FF0FF7D70001520EA8
:105390000026770E0122000E022200C0F6FF01C097
:1053A000F7FF02C0F8FF0900F5CF00F00900F5CFC4
:1053B00001F00900F5CF02F00900F5CF03F0CAC0F3
:1053C00004F0CBC005F0CCC006F0CDC007F0E2EC95
:1053D00036F01200020E046EC9C000F0000EC9BF04
:1053E000FF0E016E026E036E0450000107E00036EE
:1053F0000090013602360336FF0FF7D7520E002613
:10540000770E0122000E022200C0F6FF01C0F7FF56
:1054100002C0F8FF0900F5CF00F00900F5CF01F058
:105420000900F5CF02F00900F5CF03F012000001EA
:10543000025006180E6E086A096A0B6A0350076468
:105440000BEF2BF006500A6E068E028E03500B6E89
:105450000750036E000E0B645BEF2AF00B50075EE3
:10546000D8B4FCEF2AF0070E0764CAEF2AF0075EF3
:1054700000C008F001C000F002C001F0026A074E4F
:10548000FCEF2AF007649FEF2AF0075E00C008F0E7
:1054900001C000F0016A074EFCEF2AF007647DEFBF
:1054A0002AF0075E00C008F0006A074EFCEF2AF001
:1054B000076464EF2AF00AC002F005C001F004C0DE
:1054C00000F0086A28EF2CF0030E07646FEF2AF053
:1054D000075E08380F0B086E074EFCEF2AF0D890D5
:1054E0000832074EFCEF2AF0D8900832074EFCEF46
:1054F0002AF0D8900832FCEF2AF0030E07648EEFF2
:105500002AF0075E08380F0B086E0038F00B0826EB
:1055100000380F0B006E074EFCEF2AF0D8900032D7
:105520000832074EFCEF2AF0D89000320832074EBE
:10553000FCEF2AF0D89000320832FCEF2AF0030E7C
:105540000764B6EF2AF0075E08380F0B086E0038C4
:10555000F00B082600380F0B006E0138F00B002608
:1055600001380F0B016E074EFCEF2AF0D890013284
:1055700000320832074EFCEF2AF0D8900132003298
:105580000832074EFCEF2AF0D89001320032083280
:10559000FCEF2AF0030E0764E7EF2AF0075E0838F5
:1055A0000F0B086E0038F00B082600380F0B006E4A
:1055B0000138F00B002601380F0B016E0238F00B9A
:1055C000012602380F0B026E074EFCEF2AF0D8902E
:1055D0000232013200320832074EFCEF2AF0D89036
:1055E0000232013200320832074EFCEF2AF0D89026
:1055F0000232013200320832096A000E0EAEF0EFBC
:105600002BF0081E001E011E021E082A0022012285
:105610000222F0EF2BF00750D8A411EF2BF028EF67
:105620002CF0096A02C00AF0028E068E0750035C55
:10563000076ED8B4E3EF2BF0070E0764B1EF2BF041
:10564000075E0450096E0550046E0650056E066A2A
:10565000074EE3EF2BF0070E076486EF2BF0075E93
:105660000450096E0550046E056A074EE3EF2BF0F7
:10567000070E076464EF2BF0075E0450096E046A9E
:10568000074EE3EF2BF0070E07644BEF2BF00AC039
:1056900002F028EF2CF0030E076456EF2BF0075EA4
:1056A00009380F0B096E074EE3EF2BF0D890093243
:1056B000074EE3EF2BF0D8900932074EE3EF2BF0C3
:1056C000D8900932E3EF2BF0030E076475EF2BF04F
:1056D000075E09380F0B096E0438F00B09260438F1
:1056E0000F0B046E074EE3EF2BF0D8900432093213
:1056F000074EE3EF2BF0D89004320932074EE3EF68
:105700002BF0D89004320932E3EF2BF0030E07643C
:105710009DEF2BF0075E09380F0B096E0438F00B74
:10572000092604380F0B046E0538F00B04260538E3
:105730000F0B056E074EE3EF2BF0D89005320432C5
:105740000932074EE3EF2BF0D890053204320932CC
:10575000074EE3EF2BF0D890053204320932E3EF25
:105760002BF0030E0764CEEF2BF0075E09380F0B0A
:10577000096E0438F00B092604380F0B046E053847
:10578000F00B042605380F0B056E0638F00B0526C6
:1057900006380F0B066E074EE3EF2BF0D89006325B
:1057A000053204320932074EE3EF2BF0D89006326F
:1057B000053204320932074EE3EF2BF0D89006325F
:1057C000053204320932086A000E0EAEF0EF2BF0FB
:1057D000091E041E051E061E092A04220522062291
:1057E00009500826045000220550012206500222CA
:1057F0000EBE07EF2CF0D8A016EF2CF002320132CB
:1058000000320832033E16EF2CF022EF2CF0D8B015
:105810001CEF2CF0000E081E001E011E021E082A9E
:105820000022012202220A7E1CEF2CF0010E0C6ED7
:10583000B8EC31F02AEF2CF0020E0C6EB8EC31F01F
:105840002AEF2CF0040E0C6E40EC3BF02AEF2CF00B
:10585000000E0C6E12006E0E0001C95DD8A0D0D0F3
:10586000640E046EC9C000F0E3EC3AF0120E00269C
:10587000016A000E0122020E046E000E01BEFF0E30
:10588000026E036E0450000107E0003600900136FE
:1058900002360336FF0FF7D700011E0E0026770EE3
:1058A0000122000E022200C0F6FF01C0F7FF02C075
:1058B000F8FF0900F5CF00F00900F5CF01F009006D
:1058C000F5CF02F00900F5CF03F0000E046E000ED4
:1058D000056E000E066E7E0E076EE2EC36F000C01E
:1058E000CAF001C0CBF002C0CCF003C0CDF0640E12
:1058F000046EC9C000F0E3EC3AF008C000F00A0EF4
:10590000046EE3EC3AF0090E0026016A000E012253
:10591000020E046E000E01BEFF0E026E036E0450F6
:10592000000107E000360090013602360336FF0F13
:10593000F7D700011E0E0026770E0122000E02226C
:1059400000C0F6FF01C0F7FF02C0F8FF0900F5CF65
:1059500000F00900F5CF01F00900F5CF02F00900D1
:10596000F5CF03F0CAC004F0CBC005F0CCC006F000
:10597000CDC007F0E2EC36F000C0CAF001C0CBF0B9
:1059800002C0CCF003C0CDF00A0E046EC9C000F016
:10599000E3EC3AF008C000F0020E046E000E016E57
:1059A000026E036E0450000107E0003600900136DD
:1059B00002360336FF0FF7D700011E0E0026770EC2
:1059C0000122000E022200C0F6FF01C0F7FF02C054
:1059D000F8FF0900F5CF00F00900F5CF01F009004C
:1059E000F5CF02F00900F5CF03F0CAC004F0CBC038
:1059F00005F0CCC006F0CDC007F0E2EC36F01200A6
:105A0000C9510A08D8B083D00A0E046EC9C000F08C
:105A1000E3EC3AF0090E0026016A000E0122020EA4
:105A2000046E000E01BEFF0E026E036E04500001F4
:105A300007E000360090013602360336FF0FF7D735
:105A400000011E0E0026770E0122000E022200C069
:105A5000F6FF01C0F7FF02C0F8FF0900F5CF00F024
:105A60000900F5CF01F00900F5CF02F00900F5CFEC
:105A700003F0000E046E000E056E000E066E7E0E24
:105A8000076EE2EC36F000C0CAF001C0CBF002C0F5
:105A9000CCF003C0CDF00A0E046EC9C000F0E3ECF8
:105AA0003AF008C000F0020E046E000E016E026EA5
:105AB000036E0450000107E0003600900136023604
:105AC0000336FF0FF7D700011E0E0026770E0122C6
:105AD000000E022200C0F6FF01C0F7FF02C0F8FF6F
